:100000000C9434000C9451000C9451000C94510049
:100010000C9451000C9451000C9451000C9451001C
:100020000C9451000C9451000C9451000C9451000C
:100030000C9451000C9451000C9462000C945100EB
:100040000C9451000C9451000C9451000C945100EC
:100050000C9451000C9451000C9451000C945100DC
:100060000C9451000C94510011241FBECFEFD8E026
:10007000DEBFCDBF11E0A0E0B1E0EAE1F1E002C0F7
:1000800005900D92A230B107D9F721E0A2E0B1E0CE
:1000900001C01D92A330B207E1F70E9453000C94F7
:1000A0008B000C940000229A2A9A85B58D6085BD3C
:1000B000EEE6F0E080818260808378948CEF87BDEB
:1000C00016BCFFCF1F920F920FB60F9211248F9381
:1000D0009F93809102018F5F8093020190910001B4
:1000E000891311C095B184E0892785B980910001F9
:1000F000823121F48BE18093000103C082E180937F
:1001000000011092020116BC9F918F910F900FBEBB
:0A0110000F901F901895F894FFCF90
:02011A001200D1
:00000001FF
