:100000000C9434000C9446000C9446000C9446006A
:100010000C9468000C9446000C9446000C94460026
:100020000C9446000C9446000C9446000C94460038
:100030000C9446000C9446000C9446000C94460028
:100040000C9446000C9446000C9446000C94460018
:100050000C9446000C9446000C9446000C94460008
:100060000C9446000C94460011241FBECFEFD8E03C
:10007000DEBFCDBF21E0A0E0B1E001C01D92A13004
:10008000B207E1F70E9448000C94A0000C94000015
:10009000559A84E087B988B984B5836284BD85B5F3
:1000A000856085BDE8E6F0E0808182608083ECE6D3
:1000B000F0E08081846080837894ECE7F0E08081D8
:1000C00080648083EAE7F0E08081876E8083FFCFE1
:1000D0001F920F920FB60F9211242F938F939F931D
:1000E000EF93FF93329922C080910001811101C0EA
:1000F00018BC80910001813051F4EAE7F0E0808182
:1001000084FFFDCF809178009091790088BD2FEF1A
:1001100083ED90E3215080409040E1F700C0000063
:100120009091000181E0892780930001FF91EF9178
:100130009F918F912F910F900FBE0F901F90189548
:04014000F894FFCF61
:00000001FF
