S0150000646132635F74315F70617274322E7372656369
S11300000C9434000C943E000C943E000C943E007E
S11300100C943E000C943E000C943E000C943E0064
S11300200C943E000C943E000C943E000C943E0054
S11300300C943E000C943E000C943E000C943E0044
S11300400C943E000C943E000C943E000C943E0034
S11300500C943E000C943E000C943E000C943E0024
S11300600C943E000C943E0011241FBECFEFD8E048
S1130070DEBFCDBF0E9440000C9460000C940000D1
S1130080229A2A9A87B117B8429A85B5856085BDA8
S113009092E0329913C085B115B896BD80E00AC0CC
S11300A0A89903C08D34E1F708C096BDA89A8F5F64
S11300B08D3419F0A89BF4CFF8CFA89A2A9AE9CFE7
S10700C0F894FFCFDE
S9030000FC
