S00F0000646132615F74312E73726563B9
S11300000C9434000C943E000C943E000C943E007E
S11300100C943E000C943E000C943E000C943E0064
S11300200C943E000C943E000C943E000C943E0054
S11300300C943E000C943E000C943E000C943E0044
S11300400C943E000C943E000C943E000C943E0034
S11300500C943E000C943E000C943E000C943E0024
S11300600C943E000C943E0011241FBECFEFD8E048
S1130070DEBFCDBF0E9440000C945C000C940000D5
S1130080229A2A9A94E02A990AC02FE73DE385E14F
S1130090215030408040E1F700C0000009C02FEF3C
S11300A038E28EE0215030408040E1F700C000008B
S10F00B085B1892785B9E7CFF894FFCF0C
S9030000FC
