S00F0000646132615F74322E73726563B8
S11300000C9434000C943E000C943E000C943E007E
S11300100C943E000C943E000C943E000C943E0064
S11300200C943E000C943E000C943E000C943E0054
S11300300C943E000C943E000C943E000C943E0044
S11300400C943E000C943E000C943E000C943E0034
S11300500C943E000C943E000C943E000C943E0024
S11300600C943E000C943E0011241FBECFEFD8E048
S1130070DEBFCDBF0E9440000C9455000C940000DC
S113008087B117B8429A229A2A9A32990CC085B13C
S113009015B82FEF88E09DE3215080409040E1F7B0
S11100A000C00000F2CF2A9AF0CFF894FFCFF0
S9030000FC
