S00C0000646132632E73726563BE
S11300000C9434000C943E000C943E000C943E007E
S11300100C943E000C943E000C943E000C943E0064
S11300200C943E000C943E000C943E000C943E0054
S11300300C943E000C943E000C943E000C943E0044
S11300400C943E000C943E000C943E000C943E0034
S11300500C943E000C943E000C943E000C943E0024
S11300600C943E000C943E0011241FBECFEFD8E048
S1130070DEBFCDBF0E9440000C945E000C940000D3
S1130080229A2A9A85B5856085BD84E086BD92E171
S113009080E024E04BE132E1A89BFECF8F5F981310
S11300A00AC085B1822785B9923119F0932F80E077
S11300B002C0942F80E0A89A26BDEECFF894FFCF1B
S9030000FC
