S0120000646132625F43636F64652E737265637C
S11300000C9434000C944B000C943E000C943E0071
S11300100C943E000C943E000C943E000C943E0064
S11300200C943E000C943E000C943E000C943E0054
S11300300C943E000C943E000C943E000C943E0044
S11300400C943E000C943E000C943E000C943E0034
S11300500C943E000C943E000C943E000C943E0024
S11300600C943E000C943E0011241FBECFEFD8E048
S1130070DEBFCDBF0E9440000C9468000C940000C9
S1130080229A5A9A2A9AE89AE9E6F0E080818260F4
S113009080837894FFCF1F920F920FB60F92112492
S11300A02F938F939F9395B184E0892785B92FEF80
S11300B088E09DE3215080409040E1F700C00000BB
S11300C09F918F912F910F900FBE0F901F901895B5
S10700D0F894FFCFCE
S9030000FC
