S01000004D69647465726D312E7372656311
S11300000C9434000C9449000C9449000C9449005D
S11300100C9449000C9449000C9449000C94490038
S11300200C9449000C9449000C9449000C94490028
S11300300C9449000C9449000C9449000C94490018
S11300400C9449000C9449000C9449000C94490008
S11300500C9449000C9449000C9449000C944900F8
S11300600C9449000C94490011241FBECFEFD8E032
S1130070DEBFCDBF11E0A0E0B1E0E2ECFBE002C0E6
S113008005900D92A639B107D9F70E947D000C9412
S1130090DF050C94000088E090E09093C500809305
S11300A0C400E2ECF0E0808186608083E1ECF0E063
S11300B08081886180830895ECE7F0E0808180642A
S11300C08083EAE7F0E08081856880830895CF9398
S11300D0DF93FC012081222369F0DC011196E0EC1E
S11300E0F0E0C6ECD0E0908195FFFDCF28832D9100
S11300F02111F9CFDF91CF910895CF93DF93CDB73D
S1130100DEB7C456D1090FB6F894DEBF0FBECDBF1B
S11301100E944B000E945C000AE710E00F2EF8E7F3
S11301208F2E912CF02D0F2EF9E7AF2EB12CF02D40
S11301300F2EF4E66F2E712CF02D0F2EFCE3CF2E34
S1130140F1E0DF2EF02D0F2EF4E65F2EF02DCE0120
S113015001967C01F801808180648083F8018081AC
S113016084FFFCCF80818061808380E091E00E94E5
S11301706700FFEF23ED80E3F15020408040E1F77A
S113018000C000008CE291E00E9467009FEFE3ED65
S1130190F0E39150E040F040E1F700C00000F401CA
S11301A06081F501808170E0782B072E000C880BAC
S11301B0990B0E94C60120E030E040E85AE30E9417
S11301C0520220E030E44CE955E40E94520220E05F
S11301D030E040E251E40E941C010E948E01CB01F8
S11301E0B3010E94BF029F938F93DF92CF921F921D
S11301F05F92FF92EF920E94E702C7010E9467009C
S1130200FFEF23ED80E3F15020408040E1F700C090
S1130210000087E891E00E9467009FEFE3EDF0E3C0
S11302209150E040F040E1F700C000000FB6F894B0
S1130230DEBF0FBECDBF8ECF0E9430010C941802DA
S11302400E94110258F00E940A0240F029F45F3F14
S113025029F00C94010251110C944C020C940702E5
S11302600E94290268F39923B1F3552391F3951B56
S1130270550BBB27AA2762177307840738F09F5FC3
S11302805F4F220F331F441FAA1FA9F335D00E2E30
S11302903AF0E0E832D091505040E695001CCAF79D
S11302A02BD0FE2F29D0660F771F881FBB1F261760
S11302B037074807AB07B0E809F0BB0B802DBF0137
S11302C0FF2793585F4F3AF09E3F510578F00C9406
S11302D001020C944C025F3FE4F3983ED4F38695FC
S11302E077956795B795F7959F5FC9F7880F911D27
S11302F09695879597F90895E1E0660F771F881F13
S1130300BB1F621773078407BA0720F0621B730BC5
S1130310840BBA0BEE1F88F7E09508950E949501AF
S11303206894B1110C944C0208950E94310288F033
S11303309F5798F0B92F9927B751B0F0E1F0660FA5
S1130340771F881F991F1AF0BA95C9F714C0B130E6
S113035091F00E944B02B1E008950C944B02672F78
S1130360782F8827B85F39F0B93FCCF38695779515
S11303706795B395D9F73EF49095809570956195FE
S11303807F4F8F4F9F4F0895E89409C097FB3EF429
S113039090958095709561957F4F8F4F9F4F9923CE
S11303A0A9F0F92F96E9BB279395F695879577954C
S11303B06795B795F111F8CFFAF4BB0F11F460FF0C
S11303C01BC06F5F7F4F8F4F9F4F16C0882311F064
S11303D096E911C0772321F09EE8872F762F05C078
S11303E0662371F096E8862F70E060E02AF09A9513
S11303F0660F771F881FDAF7880F9695879597F908
S1130400089597F99F6780E870E060E008959FEF92
S113041080EC089500240A94161617061806090697
S1130420089500240A941216130614060506089566
S1130430092E0394000C11F4882352F0BB0F40F4EE
S1130440BF2B11F460FF04C06F5F7F4F8F4F9F4F2E
S1130450089557FD9058440F551F59F05F3F71F0B0
S11304604795880F97FB991F61F09F3F79F0879517
S11304700895121613061406551FF2CF4695F1DFA0
S113048008C0161617061806991FF1CF8695710530
S1130490610508940895E894BB2766277727CB0164
S11304A097F908950E9465020C9418020E940A02AA
S11304B038F00E94110220F0952311F00C940102EF
S11304C00C94070211240C944C020E94290270F32C
S11304D0959FC1F3950F50E0551F629FF001729FE5
S11304E0BB27F00DB11D639FAA27F00DB11DAA1FF4
S11304F0649F6627B00DA11D661F829F2227B00D41
S1130500A11D621F739FB00DA11D621F839FA00DCB
S1130510611D221F749F3327A00D611D231F849F1B
S1130520600D211D822F762F6A2F11249F57504072
S11305309AF0F1F088234AF0EE0FFF1FBB1F661FED
S1130540771F881F91505040A9F79E3F510580F0B6
S11305500C9401020C944C025F3FE4F3983ED4F3F4
S1130560869577956795B795F795E7959F5FC1F75A
S1130570FE2B880F911D9695879597F9089597FB03
S1130580072E16F4009407D077FD09D00E94D302F9
S113059007FC05D03EF4909581959F4F0895709582
S11305A061957F4F0895AA1BBB1B51E107C0AA1F89
S11305B0BB1FA617B70710F0A61BB70B881F991F00
S11305C05A95A9F780959095BC01CD010895AEE0A8
S11305D0B0E0EDEEF2E00C94B6050D891E898F892A
S11305E0988D26E02C831A83098397FF02C080E04C
S11305F090E801979E838D83AE01455E5F4F698DC0
S11306007A8DCE0101960E9417034D815E8157FDBC
S11306100AC02F813885421753070CF49A01F80158
S1130620E20FF31F10822E96E4E00C94D205ABE0A7
S1130630B0E0EDE1F3E00C94A8056C017B018A01C4
S1130640FC0117821682838181FFCCC1CE01019601
S11306503C01F6019381F70193FD859193FF81910C
S11306607F01882309F4BAC1853239F493FD859159
S113067093FF81917F01853229F4B60190E00E94B5
S11306800E05E7CF912C212C312CFFE1F315D8F086
S11306908B3279F038F4803279F08332A1F4232D4F
S11306A020611DC08D3261F0803369F4232D2160F7
S11306B016C0832D8260382EE32DE4603E2E2AC0BE
S11306C0F32DF8601DC037FC2DC020ED280F2A3013
S11306D040F08E32B9F436FC81C1232D2064322ED1
S11306E019C036FE06C08AE0989E200D1124922E71
S11306F011C0EAE02E9E200D1124222EF32DF0626B
S11307003F2E08C08C3621F4832D8068382E02C019
S1130710883641F4F70193FD859193FF81917F0120
S11307208111B3CF982F9F7D9554933028F40C5F9B
S11307301F4F9FE399830DC0833631F0833771F0E7
S1130740833509F059C021C0F801808189830E5F87
S11307501F4F88248394912C530113C02801F2E085
S11307604F0E511CF801A080B18036FE03C0692DE4
S113077070E002C06FEF7FEFC5010E9403054C01DA
S11307808201F32DFF773F2E16C0280122E0420E8E
S1130790511CF801A080B18036FE03C0692D70E0C1
S11307A002C06FEF7FEFC5010E94F8044C01F32DE6
S11307B0F0683F2E820133FC1BC0822D90E0881626
S11307C09906B0F4B60180E290E00E940E052A94E6
S11307D0F4CFF50137FC859137FE81915F01B601B5
S11307E090E00E940E0521102A9421E0821A9108BB
S11307F08114910471F7E8C0843611F0893641F50B
S1130800F80137FE07C060817181828193810C5F9A
S11308101F4F08C060817181072E000C880B990B53
S11308200E5F1F4FF32DFF763F2E97FF09C0909563
S11308308095709561957F4F8F4F9F4FF0683F2E45
S11308402AE030E0A3010E944A05882E861845C09C
S1130850853731F4232D2F7EB22E2AE030E025C0D7
S1130860932D997FB92E8F36C1F018F4883579F01D
S1130870B5C0803719F0883721F0B0C0E92FE061A6
S1130880BE2EB4FE0DC0FB2DF460BF2E09C034FE95
S11308900AC0292F2660B22E06C028E030E005C029
S11308A020E130E002C020E132E0F801B7FE07C0E9
S11308B060817181828193810C5F1F4F06C06081CA
S11308C0718180E090E00E5F1F4FA3010E944A05F2
S11308D0882E8618FB2DFF773F2E36FE0DC0232D64
S11308E02E7FA22E891458F434FE0BC032FC09C0AA
S11308F0832D8E7EA82E05C0B82CA32C03C0B82C43
S113090001C0B92CA4FE0FC0FE01E80DF11D8081C9
S1130910803321F49A2D997EA92E09C0A2FE06C027
S1130920B394B39404C08A2D867809F0B394A3FCDD
S113093011C0A0FE06C0B21488F4280C922C9B1897
S11309400EC0B21460F4B60180E290E00E940E057D
S1130950B394F7CFB21418F42B1802C0982C212C9E
S1130960A4FE10C0B60180E390E00E940E05A2FE32
S113097017C0A1FC03C088E790E002C088E590E0BE
S1130980B6010CC08A2D867859F0A1FE02C08BE214
S113099001C080E2A7FC8DE2B60190E00E940E0542
S11309A0891438F4B60180E390E00E940E059A940D
S11309B0F7CF8A94F301E80DF11D8081B60190E030
S11309C00E940E058110F5CF222009F442CEB60113
S11309D080E290E00E940E052A94F6CFF60186810B
S11309E0978102C08FEF9FEF2B96E2E10C94C40530
S11309F0FC010590615070400110D8F780959095E6
S1130A008E0F9F1F0895FC016150704001900110EA
S1130A10D8F7809590958E0F9F1F08950F931F937D
S1130A20CF93DF93FB01238121FD03C08FEF9FEF61
S1130A302CC022FF16C0468157812481358142177C
S1130A40530744F4A081B1819D012F5F3F4F31834F
S1130A5020838C93268137812F5F3F4F37832683F2
S1130A6014C08B01EC01FB010084F185E02D099594
S1130A70892BE1F6D80116968D919C9117970196D2
S1130A8017969C938E931697CE01DF91CF911F9169
S1130A900F910895FA01AA27283051F1203181F1EC
S1130AA0E8946F936E7F6E5F7F4F8F4F9F4FAF4F72
S1130AB0B1E03ED0B4E03CD0670F781F891F9A1F85
S1130AC0A11D680F791F8A1F911DA11D6A0F711D39
S1130AD0811D911DA11D20D009F468943F912AE045
S1130AE0269F11243019305D3193DEF6CF0108952D
S1130AF0462F4770405D4193B3E00FD0C9F7F6CF5E
S1130B00462F4F70405D4A3318F0495D31FD405225
S1130B10419302D0A9F7EACFB4E0A69597958795BB
S1130B2077956795BA95C9F700976105710508959A
S1130B309B01AC010A2E0694579547953795279546
S1130B40BA95C9F7620F731F841F951FA01D0895DE
S1130B502F923F924F925F926F927F928F929F92C9
S1130B60AF92BF92CF92DF92EF92FF920F931F93B7
S1130B70CF93DF93CDB7DEB7CA1BDB0B0FB6F89468
S1130B80DEBF0FBECDBF09942A88398848885F84A8
S1130B906E847D848C849B84AA84B984C884DF8019
S1130BA0EE80FD800C811B81AA81B981CE0FD11DFD
S1130BB00FB6F894DEBF0FBECDBFED010895F894D3
S1050BC0FFCF61
S1130BC241542B43495053544152543D22544350AF
S1130BD2222C226170692E7468696E677370656174
S1130BE26B2E636F6D222C38300D0A0041542B4357
S1130BF2495053454E443D38300D0A004745542070
S1130C0268747470733A2F2F6170692E7468696EF8
S1130C1267737065616B2E636F6D2F757064617499
S1130C22653F6170695F6B65793D4E474930583263
S1130C32384F374D44364649474E266669656C64DB
S1130C42313D25640D0A0041542B434950434C4F16
S1090C5253450D0A0000E9
S9030000FC
