:100000000C9434000C943E000C943E000C943E0082
:100010000C943E000C943E000C943E000C943E0068
:100020000C943E000C943E000C943E000C943E0058
:100030000C943E000C9484000C943E000C943E0002
:100040000C943E000C943E000C943E000C943E0038
:100050000C943E000C943E000C943E000C943E0028
:100060000C943E000C943E0011241FBECFEFD8E04C
:10007000DEBFCDBF0E946E000C94B6020C9400004F
:100080001092C50087E68093C400E2ECF0E0808126
:1000900086608083E1ECF0E0808188618083E1E824
:1000A000F0E0808185608083EFE6F0E08081816010
:1000B000808378940895ECE7F0E080818564808304
:1000C000EAE7F0E08081856880830895E0ECF0E065
:1000D000908195FFFDCF8093C60008950E94400057
:1000E0000E945B0087EF92EC9093850080938400E0
:1000F000EAE7F0E0808180648083808184FFFDCF27
:10010000808180618083F6CF1F920F920FB60F928D
:1001100011242F933F934F935F936F937F938F930C
:100120009F93AF93BF93CF93DF93EF93FF93609130
:1001300078008091790070E0782B072E000C880BF6
:10014000990B0E94950120E030E040E85AE30E94BC
:10015000210220E030E44CE955E40E94210220E035
:1001600030E040E251E40E94EB000E945D01CB01CF
:1001700064E670E00E948E02EC0180E3860F0E942C
:100180006600CE016AE070E00E948E02C82F80E314
:10019000860F0E94660080E38C0F0E9466008DE04F
:1001A0000E94660087EF92EC909385008093840014
:1001B000FF91EF91DF91CF91BF91AF919F918F917F
:1001C0007F916F915F914F913F912F910F900FBE53
:1001D0000F901F9018950E94FF000C94E7010E9459
:1001E000E00158F00E94D90140F029F45F3F29F066
:1001F0000C94D00151110C941B020C94D6010E9456
:10020000F80168F39923B1F3552391F3951B550B2E
:10021000BB27AA2762177307840738F09F5F5F4FD9
:10022000220F331F441FAA1FA9F335D00E2E3AF018
:10023000E0E832D091505040E695001CCAF72BD030
:10024000FE2F29D0660F771F881FBB1F2617370781
:100250004807AB07B0E809F0BB0B802DBF01FF27B3
:1002600093585F4F3AF09E3F510578F00C94D001BF
:100270000C941B025F3FE4F3983ED4F38695779588
:100280006795B795F7959F5FC9F7880F911D96956C
:10029000879597F90895E1E0660F771F881FBB1FC8
:1002A000621773078407BA0720F0621B730B840B75
:1002B000BA0BEE1F88F7E09508950E9464016894D8
:1002C000B1110C941B0208950E94000288F09F5700
:1002D00098F0B92F9927B751B0F0E1F0660F771F6A
:1002E000881F991F1AF0BA95C9F714C0B13091F060
:1002F0000E941A02B1E008950C941A02672F782F19
:100300008827B85F39F0B93FCCF386957795679524
:10031000B395D9F73EF490958095709561957F4F90
:100320008F4F9F4F0895E89409C097FB3EF4909536
:100330008095709561957F4F8F4F9F4F9923A9F0BE
:10034000F92F96E9BB279395F6958795779567954D
:10035000B795F111F8CFFAF4BB0F11F460FF1BC091
:100360006F5F7F4F8F4F9F4F16C0882311F096E924
:1003700011C0772321F09EE8872F762F05C06623D2
:1003800071F096E8862F70E060E02AF09A95660F8B
:10039000771F881FDAF7880F9695879597F9089544
:1003A00097F99F6780E870E060E008959FEF80EC28
:1003B000089500240A9416161706180609060895CB
:1003C00000240A9412161306140605060895092E31
:1003D0000394000C11F4882352F0BB0F40F4BF2BA0
:1003E00011F460FF04C06F5F7F4F8F4F9F4F0895E0
:1003F00057FD9058440F551F59F05F3F71F04795D6
:10040000880F97FB991F61F09F3F79F087950895BA
:10041000121613061406551FF2CF4695F1DF08C0D9
:10042000161617061806991FF1CF869571056105F6
:1004300008940895E894BB2766277727CB0197F99E
:1004400008950E9434020C94E7010E94D90138F00B
:100450000E94E00120F0952311F00C94D0010C943F
:10046000D60111240C941B020E94F80170F3959F91
:10047000C1F3950F50E0551F629FF001729FBB279B
:10048000F00DB11D639FAA27F00DB11DAA1F649F37
:100490006627B00DA11D661F829F2227B00DA11DEA
:1004A000621F739FB00DA11D621F839FA00D611D70
:1004B000221F749F3327A00D611D231F849F600D91
:1004C000211D822F762F6A2F11249F5750409AF0BA
:1004D000F1F088234AF0EE0FFF1FBB1F661F771F46
:1004E000881F91505040A9F79E3F510580F00C9411
:1004F000D0010C941B025F3FE4F3983ED4F3869541
:1005000077956795B795F795E7959F5FC1F7FE2BB0
:10051000880F911D9695879597F9089597FB072E5B
:1005200016F4009407D077FD09D00E94A20207FCC0
:1005300005D03EF4909581959F4F089570956195F3
:100540007F4F0895AA1BBB1B51E107C0AA1FBB1F09
:10055000A617B70710F0A61BB70B881F991F5A954F
:10056000A9F780959095BC01CD010895F894FFCF2F
:00000001FF
