S00C0000646134622E73726563BD
S11300000C9434000C943E000C943E000C943E007E
S11300100C943E000C943E000C943E000C943E0064
S11300200C943E000C943E000C943E000C943E0054
S11300300C943E000C943E000C943E000C943E0044
S11300400C943E000C943E000C943E000C943E0034
S11300500C943E000C943E000C943E000C943E0024
S11300600C943E000C943E0011241FBECFEFD8E048
S1130070DEBFCDBF0E945C000C947F000C94000096
S1130080E0E8F0E08081826A8083E1E8F0E080814A
S11300908B61808387E893E1909387008093860047
S11300A00895ECE7F0E0808180648083EAE7F0E083
S11300B08081876880830895219A0E9440000E946D
S11300C05100EAE7F0E0C8E7D0E0A8E8B0E08081BA
S11300D080648083808184FFFDCF8881998111961B
S11300E09C938E938081806180832FEF8FE493ECC7
S11300F0215080409040E1F700C00000E8CFF89420
S1050100FFCF2B
S9030000FC
