S0140000646134625F737465707065722E7372656353
S11300000C9434000C943E000C943E000C943E007E
S11300100C943E000C943E000C943E000C943E0064
S11300200C943E000C943E000C943E000C943E0054
S11300300C943E000C943E000C943E000C943E0044
S11300400C943E000C943E000C943E000C943E0034
S11300500C943E000C943E000C943E000C943E0024
S11300600C943E000C943E0011241FBECFEFD8E048
S1130070DEBFCDBF0E946D000C949E000C94000066
S1130080E1E8F0E080818D6080830895ECE7F0E0A2
S1130090808180648083EAE7F0E0808187688083E0
S11300A00895EAE7F0E0808180648083808184FFA2
S11300B0FDCF80917800909179009093890080938E
S11300C08800EAE7F0E080818061808308950E94DF
S11300D05100B19BFECFB19A08958FE08AB90E9476
S11300E040000E9446000F2EF9E0CF2EF02D6894B8
S11300F0DD24D3F80F2EFCE0EF2EF02D6894FF24BE
S1130100F2F806E012E0D3E0C1E0CBB80E94670049
S1130110DBB80E946700EBB80E946700FBB80E943E
S113012067000BB90E9467001BB90E946700DBB926
S11301300E946700CBB90E946700E7CFF894FFCF15
S9030000FC
